:020000040000FA
:10000000600100206D0200008102000083020000F8
:10001000850200008502000085020000000000004B
:100020000000000000000000000000008502000049
:10003000850200000000000085020000850200002B
:100040008502000085020000850200008502000094
:100050008502000085020000850200008502000084
:100060008502000085020000850200008502000074
:100070008502000085020000850200008502000064
:100080008502000085020000850200008502000054
:100090008502000085020000850200008502000044
:1000A0008502000085020000850200008502000034
:1000B0008502000085020000850200008502000024
:1000C0008502000085020000850200008502000014
:1000D0008502000085020000850200008502000004
:1000E0008502000000000000000000008502000002
:1000F00085020000850200008502000085020000E4
:1001000085020000850200008502000085020000D3
:1001100000000000000000008502000085020000D1
:1001200085020000850200008502000085020000B3
:1001300085020000850200008502000085020000A3
:1001400000000000000000000000000000000000AF
:100150008502000085020000850200008502000083
:10016000000000000000000000000000000000008F
:10017000000000000000000000000000000000007F
:10018000000000000000000000000000000000006F
:10019000000000000000000000000000000000005F
:1001A000000000000000000000000000000000004F
:1001B0008502000085020000850200008502000023
:1001C0008502000085020000850200008502000013
:1001D0008502000085020000850200008502000003
:1001E000850200008502000085020000000000007A
:1001F000000000008502000085020000850200006A
:1002000085020000850200000000000000000000E0
:1002100085020000850200008502000085020000C2
:1002200085020000850200008502000085020000B2
:1002300085020000850200008502000085020000A2
:100240008502000085020000850200008502000092
:100250008502000085020000850200008502000082
:100260008502000085020000850200004EF68850DD
:10027000CEF20000016841F47001016000F004B8A2
:10028000FEE7FEE7FEE7000000F002F800F02EF8BF
:100290000AA090E8000C82448344AAF10107DA45E1
:1002A00001D100F023F8AFF2090EBAE80F0013F005
:1002B000010F18BFFB1A43F001031847540B00004D
:1002C000640B00000023002400250026103A28BFFC
:1002D00078C1FBD8520728BF30C148BF0B607047B8
:1002E0001FB500F051FB1FBD10B510BD00F021F887
:1002F0001146FFF7F5FF00F007FB00F03FF803B4ED
:10030000FFF7F2FF03BC00F043F800000138FDD115
:100310007047000002480349014A034B7047000040
:1003200060000020600100206000002070477047DE
:100330007047754600F028F8AE46050069465346FA
:1003400020F00700854618B020B5FFF7E3FFBDE8B1
:1003500020404FF000064FF000074FF000084FF02C
:10036000000B21F00701AC46ACE8C009ACE8C009BD
:10037000ACE8C009ACE8C0098D4670470446AFF34D
:1003800000802046FFF7BBFF0048704700000020B8
:1003900001491820ABBEFEE726000200704702F0BC
:1003A00001031BB1D0F800340B4302E0D0F8003455
:1003B0008B43C0F8003402F002031BB1D0F82034A4
:1003C0000B4302E0D0F820348B43C0F82034704750
:1003D000F0B5002416E00125A5400D4085B1D0F808
:1003E000C45F67000326BE40B543C0F8C45FD0F8C1
:1003F000C45F6700C2F34116BE403543C0F8C45F16
:10040000651CECB2082CE6DB02F001051DB1D0F84A
:1004100000550D4302E0D0F800558D43C0F800555B
:1004200002F002051DB1D0F804550D4302E0D0F8EA
:1004300004558D43C0F8045502F004051DB1D0F8F1
:1004400008550D4302E0D0F808558D43C0F8085513
:1004500002F008051DB1D0F818550D4302E0D0F8A0
:1004600018558D43C0F8185502F010051DB1D0F88D
:100470003C550D4302E0D0F83C558D43C0F83C5547
:1004800003F001051DB1D0F80C550D4302E0D0F882
:100490000C558D43C0F80C5503F002051DB1D0F882
:1004A00010550D4302E0D0F810558D43C0F810559B
:1004B00003F004051DB1D0F814550D4302E0D0F847
:1004C00014558D43C0F8145503F008051DB1D0F83C
:1004D0001C550D4302E0D0F81C558D43C0F81C5547
:1004E00003F400751DB1D0F844550D4302E0D0F877
:1004F00044558D43C0F8445503F440751DB1D0F800
:1005000040550D4302E0D0F840558D43C0F84055AA
:100510001BB9D0F828550D4302E0D0F828558D437B
:10052000C0F82855F0BD000010B50146C1F30740E2
:100530000F4BDB6E01248440234033B1012303EBD6
:1005400040030C4C54F8230003E04300094C54F8DA
:100550002300C1F30722D0F82C350F249440A34385
:1005600001F00F0494402343C0F82C3510BD000067
:1005700000E00F402C0B000030B504460D4602226F
:1005800029462046FFF70BFF082301222946204673
:10059000FFF71EFF30BD0000F0B55048036E026F3C
:1005A00002F0004010B102F0700001E003F03000F2
:1005B000202811D003DC38B1102815D10AE03028EA
:1005C0000CD0702810D10CE04548C3F3841750F8C4
:1005D00027100BE0434909E0434907E047F2305157
:1005E00004E04FF4004101E00020F0BD00BF4FF0F7
:1005F000FF3402F0004010B102F4006028B102F0B4
:10060000004090BB03F4006078BB3848056833486D
:10061000D0F8646106F01F00401CC6F304277F1C5D
:1006200010FB07F04000B1FBF0F1C5F309004843AF
:10063000C5F389274F4300EB972143F480032748F4
:10064000006900F47040B0F5804F13D006DCB0F5BF
:10065000005F0BD0B0F5405F12D109E0B0F5E04F7C
:100660000AD0B0F5104F0BD108E00BE0204C08E0A9
:10067000204C06E0204C04E0204C02E0204C00E03E
:1006800000BF00BF03F4800018B302F00040D8B1EF
:1006900002F0804090B102F0004010B102F400601E
:1006A00028B102F0004048B903F4006030B94F00AF
:1006B000C2F38650401CB7FBF0F10AE0C2F3C5500C
:1006C000401CB1FBF0F104E0C3F3C350401CB1FB8C
:1006D000F0F18C4200D22146084686E700E00F4048
:1006E000BC0B00000024F40000093D0060E10F4055
:1006F00000B4C40480F0FA02005A620240787D011E
:10070000002D31012DE9F04106464448046E056F85
:1007100044F4006424F4800445F40065046605672D
:1007200004F00100D8B106F00100C0B966F0010084
:1007300004404FF4807039498865084604664FF4D8
:10074000002702E07F1E07B905E03448006D00F481
:1007500080700028F6D000BF0FB9BDE8F08124F406
:10076000FE6406F4FE6004432D4805402C49A13187
:1007700006EA0100054306F0080045EAC0052748DF
:100780000466056724F4005406F40050044325F47D
:10079000005506F40050054340202049886505F0C7
:1007A000004018B108460567046602E01B4804666D
:1007B00005671C480440C14306EA0100044325F0D4
:1007C000FC5506F0FC50054306F0804040B144F46F
:1007D000800425F48005144906EA0100054301E080
:1007E00025F0804506F4006080B94FF4004706E02C
:1007F0000E48006800F0010000B102E07F1E002FEB
:10080000F6D100BF24F4006425F4006503480466B3
:1008100005671020FFF77AFD00BF9EE700E00F405C
:100820008FFFFF7FFEFF3FF80000404068E10F4070
:1008300010B50121C0F30722094B1A4402F070429F
:1008400042F00072C0F30723054C2344C3F31303A3
:1008500042EA4312C3B242EA8302116010BD0000B3
:1008600000E60F40014600BF886900F01000002834
:10087000FAD10868704700BF826902F02002002A9E
:10088000FAD101607047F0B504460E4615461F4682
:10089000204600F01EF8B6EB051F05D2206B40F095
:1008A000200020636D0803E0206B20F0200020630F
:1008B000F000B0FBF5F0401C43089809606203F0BB
:1008C0003F00A062E7620020A061204600F011F81E
:1008D000F0BD00BF816901F008010029FAD1C16AA9
:1008E00021F01001C162016B40F2013291430163BA
:1008F0007047C16A41F01001C162016B40F20132E0
:10090000114301637047000070B51B48FFF7FAFE02
:100910001A48FFF78DFF1A48FFF78AFF0120FFF7FB
:1009200003FE40F20140FFF7FFFD03214FF040209E
:10093000FFF722FEFFF730FE054660234FF4E13259
:1009400029461048FFF79FFF21210E48FFF793FF2C
:1009500000BF0C48FFF786FFC4B221460948FFF7E5
:100960008AFF0A2C01D00D2CF3D140210548FFF756
:1009700082FF002070BD0000403D8007001800F09D
:10098000000800F000C000404FF04070E1EE100A97
:10099000704700000040004010000000008005404B
:1009A00010000000005000401100000000900540C1
:1009B00011000000006000401200000000A005408F
:1009C00012000000007000401300000000B005405D
:1009D00013000000004002401400000000C0054069
:1009E00014000000005002402E00000000D005401E
:1009F0002E000000006002402F00000000E00540D3
:100A00002F000000007002403000000000F00540A0
:100A10003000000000D00340460000000000064007
:100A2000460000000010064047000000002006407D
:100A300048000000003006407F00000000400640F3
:100A40008000000000500640840000000060064066
:100A50008C000000004000401000000000800540B5
:100A60001000000000500040110000000090054000
:100A700011000000006000401200000000A00540CE
:100A800012000000007000401300000000B005409C
:100A900013000000004002401400000000C00540A8
:100AA00014000000005002402E00000000D005405D
:100AB0002E000000006002402F00000000E0054012
:100AC0002F000000007002403000000000F00540E0
:100AD0003000000000D0034043000000000006404A
:100AE00043000000001006404400000000200640C3
:100AF000450000000030064058000000004006405D
:100B000059000000005006405C00000000600640F4
:100B100064000000007006406C0000000080064089
:100B20006D000000009006407F0000000040004083
:100B300000800540005000400090054000600040EB
:100B400000A005400070004000B005400040024099
:100B500000C005400050024000D005400060024047
:100B600000E005400070024000F0054000D0034066
:100B7000000006400010064000100640002006401D
:100B8000002006400030064000300640004006408D
:100B900000400640005006400050064000600640FD
:100BA000006006400070064000700640008006406D
:100BB00000800640009006400090064040420F0032
:100BC00000201C0080841E0000802500999E3600B5
:100BD0000040380000093D0000803E0000004B004E
:100BE000404B4C0000204E00808D5B0000C05D003B
:100BF0000080700000127A0000007D00809698004E
:100C0000001BB7000080BB00C0E8CE00647ADA00A9
:100C10000024F4000000FA0080A81201002D310128
:100C200000366E0140787D014000000000000000A9
:100C3000000100003E00080000000000000100006C
:100C4000A000000002000000000100003454010078
:100C500000000000000100002B70060000000000F2
:100C6000000100002800000000000000000100005A
:100C7000270001000000000000010000200000002B
:100C80000000000000010000500000000200000011
:100C9000000100001AAC000000000000000100008C
:100CA00017940900000000000001000016980500DC
:100CB000000000000001000014000000000000001F
:100CC0000001000013800800000000000001000087
:100CD000A00000000800000000010000100000005B
:100CE00000000000000100002800000002000000D9
:100CF00000010000400000000400000000010000AE
:100D00006000000000000000000100005D000C0019
:100D10000000000000010000500000000000000082
:100D2000000100004E000200000000000001000071
:100D300041AC010000000000000100003C00000088
:100D400000000000000100003A80090000000000DF
:100D50000001000030000000000000000001000061
:100D60002800000000000000000100002700010032
:100D700000000000000100002360060000000000E9
:100D800000010000216008000000000000010000D8
:100D90001E00000000000000000100001DC0040053
:100DA00000000000000100005000000002000000F0
:100DB0000001000018000000000000000001000019
:100DC00014000000000000000001000060000000AE
:100DD00004000000000100000024F4003000300096
:100DE000005A62029100910000879303D200D20062
:100DF00000B4C4041301130100E1F50554015401CA
:100E0000000E27079501950100688909001C4E0E08
:100E1000200E00000000002060010000C40200005D
:04000005000002896C
:00000001FF
